{
  "contractName": "HBCT_Trader",
  "abi": [
    {
      "inputs": [
        {
          "internalType": "address",
          "name": "tHBCT",
          "type": "address"
        },
        {
          "internalType": "address",
          "name": "tTOKEN",
          "type": "address"
        },
        {
          "internalType": "address",
          "name": "tUniswapV2Router",
          "type": "address"
        }
      ],
      "stateMutability": "nonpayable",
      "type": "constructor"
    },
    {
      "anonymous": false,
      "inputs": [
        {
          "indexed": true,
          "internalType": "address",
          "name": "previousOwner",
          "type": "address"
        },
        {
          "indexed": true,
          "internalType": "address",
          "name": "newOwner",
          "type": "address"
        }
      ],
      "name": "OwnershipTransferred",
      "type": "event"
    },
    {
      "stateMutability": "payable",
      "type": "fallback",
      "payable": true
    },
    {
      "inputs": [],
      "name": "HBCT",
      "outputs": [
        {
          "internalType": "address",
          "name": "",
          "type": "address"
        }
      ],
      "stateMutability": "view",
      "type": "function",
      "constant": true
    },
    {
      "inputs": [],
      "name": "PAIR",
      "outputs": [
        {
          "internalType": "address",
          "name": "",
          "type": "address"
        }
      ],
      "stateMutability": "view",
      "type": "function",
      "constant": true
    },
    {
      "inputs": [],
      "name": "TOKEN",
      "outputs": [
        {
          "internalType": "address",
          "name": "",
          "type": "address"
        }
      ],
      "stateMutability": "view",
      "type": "function",
      "constant": true
    },
    {
      "inputs": [],
      "name": "WETH",
      "outputs": [
        {
          "internalType": "address",
          "name": "",
          "type": "address"
        }
      ],
      "stateMutability": "view",
      "type": "function",
      "constant": true
    },
    {
      "inputs": [
        {
          "internalType": "uint256",
          "name": "",
          "type": "uint256"
        }
      ],
      "name": "_pathCONV",
      "outputs": [
        {
          "internalType": "address",
          "name": "",
          "type": "address"
        }
      ],
      "stateMutability": "view",
      "type": "function",
      "constant": true
    },
    {
      "inputs": [
        {
          "internalType": "uint256",
          "name": "",
          "type": "uint256"
        }
      ],
      "name": "_pathTRADE",
      "outputs": [
        {
          "internalType": "address",
          "name": "",
          "type": "address"
        }
      ],
      "stateMutability": "view",
      "type": "function",
      "constant": true
    },
    {
      "inputs": [],
      "name": "owner",
      "outputs": [
        {
          "internalType": "address",
          "name": "",
          "type": "address"
        }
      ],
      "stateMutability": "view",
      "type": "function",
      "constant": true
    },
    {
      "inputs": [
        {
          "internalType": "address",
          "name": "newOwner",
          "type": "address"
        }
      ],
      "name": "transferOwnership",
      "outputs": [],
      "stateMutability": "nonpayable",
      "type": "function"
    },
    {
      "inputs": [],
      "name": "uniswapV2Router",
      "outputs": [
        {
          "internalType": "contract IUniswapV2Router02",
          "name": "",
          "type": "address"
        }
      ],
      "stateMutability": "view",
      "type": "function",
      "constant": true
    },
    {
      "stateMutability": "payable",
      "type": "receive",
      "payable": true
    },
    {
      "inputs": [],
      "name": "getReserves",
      "outputs": [
        {
          "internalType": "uint112",
          "name": "reserve0",
          "type": "uint112"
        },
        {
          "internalType": "uint112",
          "name": "reserve1",
          "type": "uint112"
        }
      ],
      "stateMutability": "view",
      "type": "function",
      "constant": true
    },
    {
      "inputs": [],
      "name": "withdrawStuckFunds",
      "outputs": [],
      "stateMutability": "nonpayable",
      "type": "function"
    },
    {
      "inputs": [
        {
          "internalType": "address",
          "name": "_token",
          "type": "address"
        }
      ],
      "name": "withdrawStuckToken",
      "outputs": [],
      "stateMutability": "nonpayable",
      "type": "function"
    },
    {
      "inputs": [
        {
          "internalType": "address",
          "name": "account",
          "type": "address"
        }
      ],
      "name": "isExcludedFromFee",
      "outputs": [
        {
          "internalType": "bool",
          "name": "",
          "type": "bool"
        }
      ],
      "stateMutability": "view",
      "type": "function",
      "constant": true
    },
    {
      "inputs": [
        {
          "internalType": "address",
          "name": "account",
          "type": "address"
        }
      ],
      "name": "excludeFromFee",
      "outputs": [],
      "stateMutability": "nonpayable",
      "type": "function"
    },
    {
      "inputs": [
        {
          "internalType": "address",
          "name": "account",
          "type": "address"
        }
      ],
      "name": "includeInFee",
      "outputs": [],
      "stateMutability": "nonpayable",
      "type": "function"
    },
    {
      "inputs": [
        {
          "internalType": "address",
          "name": "_hbct",
          "type": "address"
        }
      ],
      "name": "setHBCT",
      "outputs": [],
      "stateMutability": "nonpayable",
      "type": "function"
    },
    {
      "inputs": [
        {
          "internalType": "address",
          "name": "_token",
          "type": "address"
        }
      ],
      "name": "setTOKEN",
      "outputs": [],
      "stateMutability": "nonpayable",
      "type": "function"
    },
    {
      "inputs": [
        {
          "internalType": "address",
          "name": "_reciever",
          "type": "address"
        }
      ],
      "name": "setFeeReciever",
      "outputs": [],
      "stateMutability": "nonpayable",
      "type": "function"
    },
    {
      "inputs": [
        {
          "internalType": "uint256",
          "name": "_feePerc",
          "type": "uint256"
        }
      ],
      "name": "setFee",
      "outputs": [],
      "stateMutability": "nonpayable",
      "type": "function"
    },
    {
      "inputs": [
        {
          "internalType": "address[]",
          "name": "_CONV",
          "type": "address[]"
        }
      ],
      "name": "setPathCONV",
      "outputs": [],
      "stateMutability": "nonpayable",
      "type": "function"
    },
    {
      "inputs": [
        {
          "internalType": "address[]",
          "name": "_TRADE",
          "type": "address[]"
        }
      ],
      "name": "setPathTRADE",
      "outputs": [],
      "stateMutability": "nonpayable",
      "type": "function"
    },
    {
      "inputs": [],
      "name": "Trade",
      "outputs": [],
      "stateMutability": "payable",
      "type": "function",
      "payable": true
    },
    {
      "inputs": [
        {
          "internalType": "address",
          "name": "sender",
          "type": "address"
        }
      ],
      "name": "Swap",
      "outputs": [],
      "stateMutability": "payable",
      "type": "function",
      "payable": true
    }
  ],
  "bytecode": "0x60c06040523480156200001157600080fd5b5060405162002726380380620027268339810160408190526200003491620005a2565b6200005a6200004b640100000000620004a1810204565b640100000000620004a5810204565b6200006d640100000000620004a1810204565b60018054600160a060020a0319908116600160a060020a0393841617909155600380548216868416179055600480549091168483161781559082166080819052604080517fad5c4648000000000000000000000000000000000000000000000000000000008152905184936000939263ad5c46489281830192602092829003018186803b158015620000fe57600080fd5b505afa15801562000113573d6000803e3d6000fd5b505050506040513d601f19601f82011682018060405250810190620001399190620005ec565b905080600160a060020a031660a081600160a060020a03168152505081600160a060020a031663c45a01556040518163ffffffff167c010000000000000000000000000000000000000000000000000000000002815260040160206040518083038186803b158015620001ab57600080fd5b505afa158015620001c0573d6000803e3d6000fd5b505050506040513d601f19601f82011682018060405250810190620001e69190620005ec565b600354600480546040517fe6a43905000000000000000000000000000000000000000000000000000000008152600160a060020a03938416928101929092528216602482015291169063e6a439059060440160206040518083038186803b1580156200025157600080fd5b505afa15801562000266573d6000803e3d6000fd5b505050506040513d601f19601f820116820180604052508101906200028c9190620005ec565b60058054600160a060020a031916600160a060020a0392909216919091179055604080516002808252606082018352909160208301908036833750508151620002dd92600692506020019062000504565b50806006600081548110620002f657620002f662000611565b60009182526020909120018054600160a060020a031916600160a060020a039283161790556004546006805491909216919060019081106200033c576200033c62000611565b60009182526020909120018054600160a060020a0392909216600160a060020a03199092169190911790556040805160028082526060820190925290816020016020820280368337505081516200039b92600792506020019062000504565b5060045460078054600160a060020a0390921691600090620003c157620003c162000611565b60009182526020909120018054600160a060020a031916600160a060020a0392831617905560035460078054919092169190600190811062000407576200040762000611565b9060005260206000200160006101000a815481600160a060020a030219169083600160a060020a0316021790555060016002600062000454620004f5640100000000026401000000009004565b600160a060020a0390811682526020808301939093526040918201600090812094909455308452600290925280832060019081905560055490921683529091205550620006409350505050565b3390565b60008054600160a060020a03838116600160a060020a0319831681178455604051919092169283917f8be0079c531659141344cd1fd0a4f28419497f9722a3daafe3b4186f6b6457e09190a35050565b600054600160a060020a031690565b8280548282559060005260206000209081019282156200055c579160200282015b828111156200055c5782518254600160a060020a031916600160a060020a0390911617825560209092019160019091019062000525565b506200056a9291506200056e565b5090565b5b808211156200056a57600081556001016200056f565b8051600160a060020a03811681146200059d57600080fd5b919050565b600080600060608486031215620005b857600080fd5b620005c38462000585565b9250620005d36020850162000585565b9150620005e36040850162000585565b90509250925092565b600060208284031215620005ff57600080fd5b6200060a8262000585565b9392505050565b7f4e487b7100000000000000000000000000000000000000000000000000000000600052603260045260246000fd5b60805160a0516120a4620006826000396000610441015260008181610205015281816109f701528181610c7201528181610f99015261106401526120a46000f3fe608060405260043610610189576000357c010000000000000000000000000000000000000000000000000000000090048063847608b8116100e7578063b629ff7711610096578063e8c585e611610073578063e8c585e6146104b8578063ea2f0b37146104d8578063f2fde38b146104f857005b8063b629ff7714610463578063c5b60a4814610483578063d436d0ef1461049857005b80639a5e3c1e116100c45780639a5e3c1e146103e2578063ace3a8a714610402578063ad5c46481461042f57005b8063847608b81461036a5780638da5cb5b146103975780638f3653d9146103c257005b8063437823ec116101435780635342acb4116101205780635342acb4146102c757806369fe0e2d1461031d57806382bfefc81461033d57005b8063437823ec1461027f5780634b00e9d61461029f5780634d9fb121146102bf57005b80631694505e116101715780631694505e146101f35780632ef698f91461024c57806339fded471461026c57005b8063068acf6c146101925780630902f1ac146101b257005b3661019057005b005b34801561019e57600080fd5b506101906101ad366004611c8c565b610518565b3480156101be57600080fd5b506101c761081e565b604080516dffffffffffffffffffffffffffff9384168152929091166020830152015b60405180910390f35b3480156101ff57600080fd5b506102277f000000000000000000000000000000000000000000000000000000000000000081565b60405173ffffffffffffffffffffffffffffffffffffffff90911681526020016101ea565b34801561025857600080fd5b50610190610267366004611c8c565b6108e7565b61019061027a366004611c8c565b610ba6565b34801561028b57600080fd5b5061019061029a366004611c8c565b611284565b3480156102ab57600080fd5b506102276102ba366004611cb0565b61131c565b610190611353565b3480156102d357600080fd5b5061030d6102e2366004611c8c565b73ffffffffffffffffffffffffffffffffffffffff1660009081526002602052604090205460011490565b60405190151581526020016101ea565b34801561032957600080fd5b50610190610338366004611cb0565b6114fd565b34801561034957600080fd5b506004546102279073ffffffffffffffffffffffffffffffffffffffff1681565b34801561037657600080fd5b506003546102279073ffffffffffffffffffffffffffffffffffffffff1681565b3480156103a357600080fd5b5060005473ffffffffffffffffffffffffffffffffffffffff16610227565b3480156103ce57600080fd5b506101906103dd366004611cf8565b611585565b3480156103ee57600080fd5b506102276103fd366004611cb0565b61160a565b34801561040e57600080fd5b506005546102279073ffffffffffffffffffffffffffffffffffffffff1681565b34801561043b57600080fd5b506102277f000000000000000000000000000000000000000000000000000000000000000081565b34801561046f57600080fd5b5061019061047e366004611c8c565b61161a565b34801561048f57600080fd5b50610190611743565b3480156104a457600080fd5b506101906104b3366004611c8c565b6117e9565b3480156104c457600080fd5b506101906104d3366004611cf8565b61189e565b3480156104e457600080fd5b506101906104f3366004611c8c565b61191f565b34801561050457600080fd5b50610190610513366004611c8c565b6119b4565b610520611ace565b61058b576040517f08c379a000000000000000000000000000000000000000000000000000000000815260206004820181905260248201527f4f776e61626c653a2063616c6c6572206973206e6f7420746865206f776e657260448201526064015b60405180910390fd5b6040517f70a0823100000000000000000000000000000000000000000000000000000000815230600482018190529060009073ffffffffffffffffffffffffffffffffffffffff8416906370a082319060240160206040518083038186803b1580156105f657600080fd5b505afa15801561060a573d6000803e3d6000fd5b505050506040513d601f19601f8201168201806040525081019061062e9190611dda565b9050600081116106c0576040517f08c379a000000000000000000000000000000000000000000000000000000000815260206004820152602360248201527f43616e277420776974686472617720546f6b656e207769746820302062616c6160448201527f6e636500000000000000000000000000000000000000000000000000000000006064820152608401610582565b6040517f095ea7b300000000000000000000000000000000000000000000000000000000815273ffffffffffffffffffffffffffffffffffffffff83811660048301526024820183905284169063095ea7b390604401602060405180830381600087803b15801561073057600080fd5b505af1158015610744573d6000803e3d6000fd5b505050506040513d601f19601f820116820180604052508101906107689190611df3565b506040517f23b872dd00000000000000000000000000000000000000000000000000000000815273ffffffffffffffffffffffffffffffffffffffff8381166004830152336024830152604482018390528416906323b872dd906064015b602060405180830381600087803b1580156107e057600080fd5b505af11580156107f4573d6000803e3d6000fd5b505050506040513d601f19601f820116820180604052508101906108189190611df3565b50505050565b600080600560009054906101000a900473ffffffffffffffffffffffffffffffffffffffff1673ffffffffffffffffffffffffffffffffffffffff16630902f1ac6040518163ffffffff167c010000000000000000000000000000000000000000000000000000000002815260040160606040518083038186803b1580156108a557600080fd5b505afa1580156108b9573d6000803e3d6000fd5b505050506040513d601f19601f820116820180604052508101906108dd9190611e33565b5090939092509050565b6108ef611ace565b610955576040517f08c379a000000000000000000000000000000000000000000000000000000000815260206004820181905260248201527f4f776e61626c653a2063616c6c6572206973206e6f7420746865206f776e65726044820152606401610582565b600380547fffffffffffffffffffffffff00000000000000000000000000000000000000001673ffffffffffffffffffffffffffffffffffffffff83169081179091556007805460019081106109ad576109ad611e83565b9060005260206000200160006101000a81548173ffffffffffffffffffffffffffffffffffffffff021916908373ffffffffffffffffffffffffffffffffffffffff1602179055507f000000000000000000000000000000000000000000000000000000000000000073ffffffffffffffffffffffffffffffffffffffff1663c45a01556040518163ffffffff167c010000000000000000000000000000000000000000000000000000000002815260040160206040518083038186803b158015610a7757600080fd5b505afa158015610a8b573d6000803e3d6000fd5b505050506040513d601f19601f82011682018060405250810190610aaf9190611eb2565b600354600480546040517fe6a4390500000000000000000000000000000000000000000000000000000000815273ffffffffffffffffffffffffffffffffffffffff938416928101929092528216602482015291169063e6a439059060440160206040518083038186803b158015610b2657600080fd5b505afa158015610b3a573d6000803e3d6000fd5b505050506040513d601f19601f82011682018060405250810190610b5e9190611eb2565b600580547fffffffffffffffffffffffff00000000000000000000000000000000000000001673ffffffffffffffffffffffffffffffffffffffff9290921691909117905550565b333014610c35576040517f08c379a000000000000000000000000000000000000000000000000000000000815260206004820152602360248201527f4f776e61626c653a2063616c6c6572206973206e6f742074686520636f6e747260448201527f61637400000000000000000000000000000000000000000000000000000000006064820152608401610582565b6040517fb6f9de9500000000000000000000000000000000000000000000000000000000815273ffffffffffffffffffffffffffffffffffffffff7f0000000000000000000000000000000000000000000000000000000000000000169063b6f9de95903490610cb19060009060069030904290600401611f25565b6000604051808303818588803b158015610cca57600080fd5b505af1158015610cde573d6000803e3d6000fd5b5050600480546040517f70a0823100000000000000000000000000000000000000000000000000000000815230928101929092526000945073ffffffffffffffffffffffffffffffffffffffff1692506370a08231915060240160206040518083038186803b158015610d5057600080fd5b505afa158015610d64573d6000803e3d6000fd5b505050506040513d601f19601f82011682018060405250810190610d889190611dda565b73ffffffffffffffffffffffffffffffffffffffff8316600090815260026020526040902054600954919250159015801590610dc15750805b15610f58576000606483600954610dd89190611f96565b610de29190611fd3565b9050610dee818461200e565b600480546008546040517f095ea7b300000000000000000000000000000000000000000000000000000000815273ffffffffffffffffffffffffffffffffffffffff9182169381019390935260248301859052929550919091169063095ea7b390604401602060405180830381600087803b158015610e6c57600080fd5b505af1158015610e80573d6000803e3d6000fd5b505050506040513d601f19601f82011682018060405250810190610ea49190611df3565b50600480546008546040517fa9059cbb00000000000000000000000000000000000000000000000000000000815273ffffffffffffffffffffffffffffffffffffffff9182169381019390935260248301849052169063a9059cbb90604401602060405180830381600087803b158015610f1d57600080fd5b505af1158015610f31573d6000803e3d6000fd5b505050506040513d601f19601f82011682018060405250810190610f559190611df3565b50505b600480546040517f095ea7b300000000000000000000000000000000000000000000000000000000815273ffffffffffffffffffffffffffffffffffffffff7f00000000000000000000000000000000000000000000000000000000000000008116938201939093526024810185905291169063095ea7b390604401602060405180830381600087803b158015610fee57600080fd5b505af1158015611002573d6000803e3d6000fd5b505050506040513d601f19601f820116820180604052508101906110269190611df3565b506040517f5c11d79500000000000000000000000000000000000000000000000000000000815273ffffffffffffffffffffffffffffffffffffffff7f00000000000000000000000000000000000000000000000000000000000000001690635c11d795906110a390859060009060079030904290600401612025565b600060405180830381600087803b1580156110bd57600080fd5b505af11580156110d1573d6000803e3d6000fd5b50506003546040517f70a0823100000000000000000000000000000000000000000000000000000000815230600482015273ffffffffffffffffffffffffffffffffffffffff90911692506370a08231915060240160206040518083038186803b15801561113e57600080fd5b505afa158015611152573d6000803e3d6000fd5b505050506040513d601f19601f820116820180604052508101906111769190611dda565b6003546040517f095ea7b300000000000000000000000000000000000000000000000000000000815273ffffffffffffffffffffffffffffffffffffffff86811660048301526024820184905292945091169063095ea7b390604401602060405180830381600087803b1580156111ec57600080fd5b505af1158015611200573d6000803e3d6000fd5b505050506040513d601f19601f820116820180604052508101906112249190611df3565b506003546040517fa9059cbb00000000000000000000000000000000000000000000000000000000815273ffffffffffffffffffffffffffffffffffffffff8581166004830152602482018590529091169063a9059cbb906044016107c6565b61128c611ace565b6112f2576040517f08c379a000000000000000000000000000000000000000000000000000000000815260206004820181905260248201527f4f776e61626c653a2063616c6c6572206973206e6f7420746865206f776e65726044820152606401610582565b73ffffffffffffffffffffffffffffffffffffffff16600090815260026020526040902060019055565b6007818154811061132c57600080fd5b60009182526020909120015473ffffffffffffffffffffffffffffffffffffffff16905081565b60035473ffffffffffffffffffffffffffffffffffffffff1615801590611391575060045473ffffffffffffffffffffffffffffffffffffffff1615155b6113f7576040517f08c379a000000000000000000000000000000000000000000000000000000000815260206004820152601560248201527f436f6e76657274206973206e6f742053657475702e00000000000000000000006044820152606401610582565b60085473ffffffffffffffffffffffffffffffffffffffff16611476576040517f08c379a000000000000000000000000000000000000000000000000000000000815260206004820152601660248201527f436f6e7472616374206973206e6f742053657475702e000000000000000000006044820152606401610582565b306339fded4734336040517c010000000000000000000000000000000000000000000000000000000063ffffffff851602815273ffffffffffffffffffffffffffffffffffffffff90911660048201526024016000604051808303818588803b1580156114e257600080fd5b505af11580156114f6573d6000803e3d6000fd5b5050505050565b611505611ace565b61156b576040517f08c379a000000000000000000000000000000000000000000000000000000000815260206004820181905260248201527f4f776e61626c653a2063616c6c6572206973206e6f7420746865206f776e65726044820152606401610582565b606481111561157c57606460095550565b60098190555b50565b61158d611ace565b6115f3576040517f08c379a000000000000000000000000000000000000000000000000000000000815260206004820181905260248201527f4f776e61626c653a2063616c6c6572206973206e6f7420746865206f776e65726044820152606401610582565b8051611606906007906020840190611bbb565b5050565b6006818154811061132c57600080fd5b611622611ace565b611688576040517f08c379a000000000000000000000000000000000000000000000000000000000815260206004820181905260248201527f4f776e61626c653a2063616c6c6572206973206e6f7420746865206f776e65726044820152606401610582565b600480547fffffffffffffffffffffffff00000000000000000000000000000000000000001673ffffffffffffffffffffffffffffffffffffffff83169081179091556006805460019081106116e0576116e0611e83565b6000918252602082200180547fffffffffffffffffffffffff00000000000000000000000000000000000000001673ffffffffffffffffffffffffffffffffffffffff93841617905560045460078054919093169291906109ad576109ad611e83565b61174b611ace565b6117b1576040517f08c379a000000000000000000000000000000000000000000000000000000000815260206004820181905260248201527f4f776e61626c653a2063616c6c6572206973206e6f7420746865206f776e65726044820152606401610582565b30316117bc57600080fd5b6040513390303180156108fc02916000818181858888f19350505050158015611582573d6000803e3d6000fd5b6117f1611ace565b611857576040517f08c379a000000000000000000000000000000000000000000000000000000000815260206004820181905260248201527f4f776e61626c653a2063616c6c6572206973206e6f7420746865206f776e65726044820152606401610582565b600880547fffffffffffffffffffffffff00000000000000000000000000000000000000001673ffffffffffffffffffffffffffffffffffffffff92909216919091179055565b6118a6611ace565b61190c576040517f08c379a000000000000000000000000000000000000000000000000000000000815260206004820181905260248201527f4f776e61626c653a2063616c6c6572206973206e6f7420746865206f776e65726044820152606401610582565b8051611606906006906020840190611bbb565b611927611ace565b61198d576040517f08c379a000000000000000000000000000000000000000000000000000000000815260206004820181905260248201527f4f776e61626c653a2063616c6c6572206973206e6f7420746865206f776e65726044820152606401610582565b73ffffffffffffffffffffffffffffffffffffffff16600090815260026020526040812055565b6119bc611ace565b611a22576040517f08c379a000000000000000000000000000000000000000000000000000000000815260206004820181905260248201527f4f776e61626c653a2063616c6c6572206973206e6f7420746865206f776e65726044820152606401610582565b73ffffffffffffffffffffffffffffffffffffffff8116611ac5576040517f08c379a000000000000000000000000000000000000000000000000000000000815260206004820152602660248201527f4f776e61626c653a206e6577206f776e657220697320746865207a65726f206160448201527f64647265737300000000000000000000000000000000000000000000000000006064820152608401610582565b61158281611b46565b60008054339073ffffffffffffffffffffffffffffffffffffffff16811480611b4057508073ffffffffffffffffffffffffffffffffffffffff16611b2860015473ffffffffffffffffffffffffffffffffffffffff1690565b73ffffffffffffffffffffffffffffffffffffffff16145b91505090565b6000805473ffffffffffffffffffffffffffffffffffffffff8381167fffffffffffffffffffffffff0000000000000000000000000000000000000000831681178455604051919092169283917f8be0079c531659141344cd1fd0a4f28419497f9722a3daafe3b4186f6b6457e09190a35050565b828054828255906000526020600020908101928215611c35579160200282015b82811115611c3557825182547fffffffffffffffffffffffff00000000000000000000000000000000000000001673ffffffffffffffffffffffffffffffffffffffff909116178255602090920191600190910190611bdb565b50611c41929150611c45565b5090565b5b80821115611c415760008155600101611c46565b73ffffffffffffffffffffffffffffffffffffffff8116811461158257600080fd5b8035611c8781611c5a565b919050565b600060208284031215611c9e57600080fd5b8135611ca981611c5a565b9392505050565b600060208284031215611cc257600080fd5b5035919050565b7f4e487b7100000000000000000000000000000000000000000000000000000000600052604160045260246000fd5b60006020808385031215611d0b57600080fd5b823567ffffffffffffffff80821115611d2357600080fd5b818501915085601f830112611d3757600080fd5b813581811115611d4957611d49611cc9565b8381026040517fffffffffffffffffffffffffffffffffffffffffffffffffffffffffffffffe0603f83011681018181108582111715611d8b57611d8b611cc9565b604052918252848201925083810185019188831115611da957600080fd5b938501935b82851015611dce57611dbf85611c7c565b84529385019392850192611dae565b98975050505050505050565b600060208284031215611dec57600080fd5b5051919050565b600060208284031215611e0557600080fd5b81518015158114611ca957600080fd5b80516dffffffffffffffffffffffffffff81168114611c8757600080fd5b600080600060608486031215611e4857600080fd5b611e5184611e15565b9250611e5f60208501611e15565b9150604084015163ffffffff81168114611e7857600080fd5b809150509250925092565b7f4e487b7100000000000000000000000000000000000000000000000000000000600052603260045260246000fd5b600060208284031215611ec457600080fd5b8151611ca981611c5a565b6000815480845260208085019450836000528060002060005b83811015611f1a57815473ffffffffffffffffffffffffffffffffffffffff1687529582019560019182019101611ee8565b509495945050505050565b848152608060208201526000611f3e6080830186611ecf565b73ffffffffffffffffffffffffffffffffffffffff949094166040830152506060015292915050565b7f4e487b7100000000000000000000000000000000000000000000000000000000600052601160045260246000fd5b6000817fffffffffffffffffffffffffffffffffffffffffffffffffffffffffffffffff0483118215151615611fce57611fce611f67565b500290565b600082612009577f4e487b7100000000000000000000000000000000000000000000000000000000600052601260045260246000fd5b500490565b60008282101561202057612020611f67565b500390565b85815284602082015260a06040820152600061204460a0830186611ecf565b73ffffffffffffffffffffffffffffffffffffffff9490941660608301525060800152939250505056fea264697066735822122034c9ed329c06724ada6a7d7392252864396a3c2e43ba1f119107814dbf99dc8164736f6c63430008090033",
  "immutableReferences": {
    "936": [
      {
        "length": 32,
        "start": 517
      },
      {
        "length": 32,
        "start": 2551
      },
      {
        "length": 32,
        "start": 3186
      },
      {
        "length": 32,
        "start": 3993
      },
      {
        "length": 32,
        "start": 4196
      }
    ],
    "938": [
      {
        "length": 32,
        "start": 1089
      }
    ]
  },
  "source": "// SPDX-License-Identifier: MIT\r\n\r\nimport \"@openzeppelin/contracts/token/ERC20/IERC20.sol\";\r\nimport \"@uniswap/v2-periphery/contracts/interfaces/IUniswapV2Router02.sol\";\r\nimport '@uniswap/v2-periphery/contracts/interfaces/IWETH.sol';\r\nimport \"@uniswap/v2-core/contracts/interfaces/IUniswapV2Factory.sol\";\r\nimport \"@uniswap/v2-core/contracts/interfaces/IUniswapV2Pair.sol\";\r\n\r\nimport \"./Security.sol\";\r\n\r\npragma solidity ^0.8.9;\r\n\r\ncontract HBCT_Trader is Security {\r\n    IUniswapV2Router02 public immutable uniswapV2Router;\r\n    address public immutable WETH;\r\n\r\n    mapping(address => uint256) internal _isExcludedFromFee;\r\n\r\n    address public HBCT;\r\n    address public TOKEN;\r\n    address public PAIR;\r\n    address[] public _pathCONV;\r\n    address[] public _pathTRADE;\r\n\r\n    address private reciever;\r\n    uint256 private feePerc;\r\n\r\n    constructor(address tHBCT, address tTOKEN, address tUniswapV2Router) {\r\n        HBCT = tHBCT;\r\n        TOKEN = tTOKEN;\r\n\r\n        IUniswapV2Router02 _uniswapV2Router = IUniswapV2Router02(tUniswapV2Router);\r\n        uniswapV2Router = _uniswapV2Router;\r\n        address _WETH = _uniswapV2Router.WETH();\r\n        WETH = _WETH;\r\n        PAIR = IUniswapV2Factory(_uniswapV2Router.factory()).getPair(HBCT, TOKEN);\r\n\r\n        _pathCONV = new address[](2);\r\n        _pathCONV[0] = _WETH;\r\n        _pathCONV[1] = TOKEN;\r\n\r\n        _pathTRADE = new address[](2);\r\n        _pathTRADE[0] = TOKEN;\r\n        _pathTRADE[1] = HBCT;\r\n\r\n        //exclude Owner, Contract & Pair from fee\r\n        _isExcludedFromFee[owner()] = 1;\r\n        _isExcludedFromFee[address(this)] = 1;\r\n        _isExcludedFromFee[PAIR] = 1;\r\n    }\r\n\r\n    // Function to receive Ether. msg.data must be empty\r\n    receive() external payable {}\r\n\r\n    // Fallback function is called when msg.data is not empty\r\n    fallback() external payable {}\r\n\r\n    function getReserves() external view returns (uint112 reserve0, uint112 reserve1) {\r\n        (reserve0, reserve1,) = IUniswapV2Pair(PAIR).getReserves();\r\n    }\r\n\r\n    function withdrawStuckFunds() external onlyOwner {\r\n        require(address(this).balance > 0);\r\n        payable(_msgSender()).transfer(address(this).balance);\r\n    }\r\n\r\n    function withdrawStuckToken(address _token) external onlyOwner {\r\n        address _spender = address(this);\r\n        uint256 _balance = IERC20(_token).balanceOf(_spender);\r\n        require(_balance > 0, \"Can't withdraw Token with 0 balance\");\r\n\r\n        IERC20(_token).approve(_spender, _balance);\r\n        IERC20(_token).transferFrom(_spender, _msgSender(), _balance);\r\n    }\r\n\r\n    function isExcludedFromFee(address account) external view returns (bool) {\r\n        return _isExcludedFromFee[account] == 1;\r\n    }\r\n\r\n     function excludeFromFee(address account) external onlyOwner {\r\n        _isExcludedFromFee[account] = 1;\r\n    }\r\n\r\n    function includeInFee(address account) external onlyOwner {\r\n        _isExcludedFromFee[account] = 0;\r\n    }\r\n\r\n    function setHBCT(address _hbct) external onlyOwner {\r\n        HBCT = _hbct;\r\n        _pathTRADE[1] = HBCT;\r\n        PAIR = IUniswapV2Factory(uniswapV2Router.factory()).getPair(HBCT, TOKEN);\r\n    }\r\n\r\n    function setTOKEN(address _token) external onlyOwner {\r\n        TOKEN = _token;\r\n        _pathCONV[1] = TOKEN;\r\n        _pathTRADE[0] = TOKEN;\r\n        PAIR = IUniswapV2Factory(uniswapV2Router.factory()).getPair(HBCT, TOKEN);\r\n    }\r\n\r\n    function setFeeReciever(address _reciever) external onlyOwner {\r\n        reciever = _reciever;\r\n    }\r\n\r\n    function setFee(uint256 _feePerc) external onlyOwner {\r\n        if (_feePerc > 100) feePerc = 100;\r\n        else feePerc = _feePerc;\r\n    }\r\n\r\n    function setPathCONV(address[] memory _CONV) external onlyOwner {\r\n        _pathCONV = _CONV;\r\n    }\r\n\r\n    function setPathTRADE(address[] memory _TRADE) external onlyOwner {\r\n        _pathTRADE = _TRADE;\r\n    }\r\n\r\n    function Trade() payable external {\r\n        require(HBCT != address(0) && TOKEN != address(0), \"Convert is not Setup.\");\r\n        require(reciever != address(0), \"Contract is not Setup.\");\r\n        this.Swap{value: msg.value}(_msgSender());\r\n    }\r\n\r\n    function Swap(address sender) payable external onlyContr {\r\n        uniswapV2Router.swapExactETHForTokensSupportingFeeOnTransferTokens{value: msg.value}(0, _pathCONV, address(this), block.timestamp);\r\n\r\n        // Gett balance and substract fees\r\n        uint256 _amTOKEN = IERC20(TOKEN).balanceOf(address(this));\r\n        bool takeFee = _isExcludedFromFee[sender] == 0;\r\n\r\n        if (feePerc > 0 && takeFee) {\r\n            uint256 _feeSize = feePerc * _amTOKEN / 100;\r\n            _amTOKEN -= _feeSize;\r\n\r\n            // Transfer the fees\r\n            IERC20(TOKEN).approve(reciever, _feeSize);\r\n            IERC20(TOKEN).transfer(reciever, _feeSize);\r\n        }\r\n        \r\n        // Swap the rest for tokens\r\n        IERC20(TOKEN).approve(address(uniswapV2Router), _amTOKEN);\r\n        uniswapV2Router.swapExactTokensForTokensSupportingFeeOnTransferTokens(_amTOKEN, 0, _pathTRADE, address(this), block.timestamp);\r\n\r\n        // Transfer the token\r\n        _amTOKEN = IERC20(HBCT).balanceOf(address(this));\r\n        IERC20(HBCT).approve(sender, _amTOKEN);\r\n        IERC20(HBCT).transfer(sender, _amTOKEN);\r\n    }\r\n}",
  "sourcePath": "D:\\Private\\HBCT\\Crypto\\HBCT Trader\\contracts\\HBCT_Trader.sol",
  "compiler": {
    "name": "solc",
    "version": "0.8.9+commit.e5eed63a.Emscripten.clang"
  },
  "schemaVersion": "3.4.2",
  "updatedAt": "2021-10-21T22:44:46.439Z",
  "networkType": "ethereum",
  "devdoc": {
    "kind": "dev",
    "methods": {
      "owner()": {
        "details": "Returns the address of the current owner."
      },
      "transferOwnership(address)": {
        "details": "Transfers ownership of the contract to a new account (`newOwner`). Can only be called by the current owner."
      }
    },
    "version": 1
  },
  "userdoc": {
    "kind": "user",
    "methods": {},
    "version": 1
  }
}